{
  "transactions": [
    {
      "hash": "0xad1aa443264ece48f50012eb7676b81f73d18a9710887e7fe5ef4e9b5e936fb6",
      "transactionType": "CALL",
      "contractName": null,
      "contractAddress": "0x11390cdee611b21653ca0fbe21f6feca4c029e9d",
      "function": "setTraitData(bytes4,uint128,uint256,address[],uint256[])",
      "arguments": [
        "0x9594f3ba",
        "25",
        "1000000000000000",
        "[0xaf88d065e77c8cC2239327C5EDb3A432268e5831, 0x539bdE0d7Dbd336b79148AA742883198BBF60342]",
        "[1000000, 1000000000000000000]"
      ],
      "transaction": {
        "from": "0xc8dd8da93c79f00fbfcddb5bbbb1233a02cf0296",
        "to": "0x11390cdee611b21653ca0fbe21f6feca4c029e9d",
        "gas": "0x27f8a",
        "value": "0x0",
        "input": "0x2062edfe9594f3ba00000000000000000000000000000000000000000000000000000000000000000000000000000000000000000000000000000000000000000000001900000000000000000000000000000000000000000000000000038d7ea4c6800000000000000000000000000000000000000000000000000000000000000000a000000000000000000000000000000000000000000000000000000000000001000000000000000000000000000000000000000000000000000000000000000002000000000000000000000000af88d065e77c8cc2239327c5edb3a432268e5831000000000000000000000000539bde0d7dbd336b79148aa742883198bbf60342000000000000000000000000000000000000000000000000000000000000000200000000000000000000000000000000000000000000000000000000000f42400000000000000000000000000000000000000000000000000de0b6b3a7640000",
        "nonce": "0x8a0",
        "chainId": "0xa4b1"
      },
      "additionalContracts": [],
      "isFixedGasLimit": false
    },
    {
      "hash": "0xe1b64c05436a7d91e9f7eca004671390e591f846f4aef0ad658efb82b4873dd0",
      "transactionType": "CALL",
      "contractName": null,
      "contractAddress": "0x11390cdee611b21653ca0fbe21f6feca4c029e9d",
      "function": "setTraitData(bytes4,uint128,uint256,address[],uint256[])",
      "arguments": [
        "0xd8105de5",
        "25",
        "1000000000000000",
        "[0xaf88d065e77c8cC2239327C5EDb3A432268e5831, 0x539bdE0d7Dbd336b79148AA742883198BBF60342]",
        "[1000000, 1000000000000000000]"
      ],
      "transaction": {
        "from": "0xc8dd8da93c79f00fbfcddb5bbbb1233a02cf0296",
        "to": "0x11390cdee611b21653ca0fbe21f6feca4c029e9d",
        "gas": "0x27f97",
        "value": "0x0",
        "input": "0x2062edfed8105de500000000000000000000000000000000000000000000000000000000000000000000000000000000000000000000000000000000000000000000001900000000000000000000000000000000000000000000000000038d7ea4c6800000000000000000000000000000000000000000000000000000000000000000a000000000000000000000000000000000000000000000000000000000000001000000000000000000000000000000000000000000000000000000000000000002000000000000000000000000af88d065e77c8cc2239327c5edb3a432268e5831000000000000000000000000539bde0d7dbd336b79148aa742883198bbf60342000000000000000000000000000000000000000000000000000000000000000200000000000000000000000000000000000000000000000000000000000f42400000000000000000000000000000000000000000000000000de0b6b3a7640000",
        "nonce": "0x8a1",
        "chainId": "0xa4b1"
      },
      "additionalContracts": [],
      "isFixedGasLimit": false
    }
  ],
  "receipts": [
    {
      "status": "0x1",
      "cumulativeGasUsed": "0x12104e",
      "logs": [
        {
          "address": "0x11390cdee611b21653ca0fbe21f6feca4c029e9d",
          "topics": [
            "0x33d818c2731531d9c370ad1f8daf319c9ad1cba272c9cbb0900bf14f9df12ab5",
            "0x9594f3ba00000000000000000000000000000000000000000000000000000000",
            "0x000000000000000000000000af88d065e77c8cc2239327c5edb3a432268e5831",
            "0x00000000000000000000000000000000000000000000000000000000000f4240"
          ],
          "data": "0x",
          "blockHash": "0x97f6191f1189a0bbaf3a4a7abf52db8e5404ef6c06a30a43741c69841a786bc3",
          "blockNumber": "0x1253505c",
          "transactionHash": "0xad1aa443264ece48f50012eb7676b81f73d18a9710887e7fe5ef4e9b5e936fb6",
          "transactionIndex": "0x2",
          "logIndex": "0x8",
          "removed": false
        },
        {
          "address": "0x11390cdee611b21653ca0fbe21f6feca4c029e9d",
          "topics": [
            "0x33d818c2731531d9c370ad1f8daf319c9ad1cba272c9cbb0900bf14f9df12ab5",
            "0x9594f3ba00000000000000000000000000000000000000000000000000000000",
            "0x000000000000000000000000539bde0d7dbd336b79148aa742883198bbf60342",
            "0x0000000000000000000000000000000000000000000000000de0b6b3a7640000"
          ],
          "data": "0x",
          "blockHash": "0x97f6191f1189a0bbaf3a4a7abf52db8e5404ef6c06a30a43741c69841a786bc3",
          "blockNumber": "0x1253505c",
          "transactionHash": "0xad1aa443264ece48f50012eb7676b81f73d18a9710887e7fe5ef4e9b5e936fb6",
          "transactionIndex": "0x2",
          "logIndex": "0x9",
          "removed": false
        },
        {
          "address": "0x11390cdee611b21653ca0fbe21f6feca4c029e9d",
          "topics": [
            "0xf91dff09f4d580a0c8639e62396baeaf376c210a372bdda4bc1970b742dadfda",
            "0x9594f3ba00000000000000000000000000000000000000000000000000000000",
            "0x00000000000000000000000000000000000000000000000000038d7ea4c68000"
          ],
          "data": "0x",
          "blockHash": "0x97f6191f1189a0bbaf3a4a7abf52db8e5404ef6c06a30a43741c69841a786bc3",
          "blockNumber": "0x1253505c",
          "transactionHash": "0xad1aa443264ece48f50012eb7676b81f73d18a9710887e7fe5ef4e9b5e936fb6",
          "transactionIndex": "0x2",
          "logIndex": "0xa",
          "removed": false
        }
      ],
      "logsBloom": "0x00000000000000000020000000000000000000000000000000000000000000000000000000000000100000000000000000001000000000000000000000000000000000000000000000000000000000000000000000000000000000000000000400000000000000000060000000000000000000000001000000000010000000000000000000000000020000000110000000020000004000000001000200000000000000000000000000000000000012000000000000000000020000000400080000000000000800400000800800000000000000000000000000000000000000000000001000000080000000000000000000000000002000000000000000000000",
      "type": "0x2",
      "transactionHash": "0xad1aa443264ece48f50012eb7676b81f73d18a9710887e7fe5ef4e9b5e936fb6",
      "transactionIndex": "0x2",
      "blockHash": "0x97f6191f1189a0bbaf3a4a7abf52db8e5404ef6c06a30a43741c69841a786bc3",
      "blockNumber": "0x1253505c",
      "gasUsed": "0x1db5b",
      "effectiveGasPrice": "0x107f250",
      "from": "0xc8dd8da93c79f00fbfcddb5bbbb1233a02cf0296",
      "to": "0x11390cdee611b21653ca0fbe21f6feca4c029e9d",
      "contractAddress": null,
      "gasUsedForL1": "0x10d0",
      "l1BlockNumber": "0x14dcaf5"
    },
    {
      "status": "0x1",
      "cumulativeGasUsed": "0xe64af",
      "logs": [
        {
          "address": "0x11390cdee611b21653ca0fbe21f6feca4c029e9d",
          "topics": [
            "0x33d818c2731531d9c370ad1f8daf319c9ad1cba272c9cbb0900bf14f9df12ab5",
            "0xd8105de500000000000000000000000000000000000000000000000000000000",
            "0x000000000000000000000000af88d065e77c8cc2239327c5edb3a432268e5831",
            "0x00000000000000000000000000000000000000000000000000000000000f4240"
          ],
          "data": "0x",
          "blockHash": "0x1ac7db48dbce74a97d3d1bbd587871fb4d41ffd64f04c9f7bc1901b7cbc477cb",
          "blockNumber": "0x12535063",
          "transactionHash": "0xe1b64c05436a7d91e9f7eca004671390e591f846f4aef0ad658efb82b4873dd0",
          "transactionIndex": "0x4",
          "logIndex": "0x13",
          "removed": false
        },
        {
          "address": "0x11390cdee611b21653ca0fbe21f6feca4c029e9d",
          "topics": [
            "0x33d818c2731531d9c370ad1f8daf319c9ad1cba272c9cbb0900bf14f9df12ab5",
            "0xd8105de500000000000000000000000000000000000000000000000000000000",
            "0x000000000000000000000000539bde0d7dbd336b79148aa742883198bbf60342",
            "0x0000000000000000000000000000000000000000000000000de0b6b3a7640000"
          ],
          "data": "0x",
          "blockHash": "0x1ac7db48dbce74a97d3d1bbd587871fb4d41ffd64f04c9f7bc1901b7cbc477cb",
          "blockNumber": "0x12535063",
          "transactionHash": "0xe1b64c05436a7d91e9f7eca004671390e591f846f4aef0ad658efb82b4873dd0",
          "transactionIndex": "0x4",
          "logIndex": "0x14",
          "removed": false
        },
        {
          "address": "0x11390cdee611b21653ca0fbe21f6feca4c029e9d",
          "topics": [
            "0xf91dff09f4d580a0c8639e62396baeaf376c210a372bdda4bc1970b742dadfda",
            "0xd8105de500000000000000000000000000000000000000000000000000000000",
            "0x00000000000000000000000000000000000000000000000000038d7ea4c68000"
          ],
          "data": "0x",
          "blockHash": "0x1ac7db48dbce74a97d3d1bbd587871fb4d41ffd64f04c9f7bc1901b7cbc477cb",
          "blockNumber": "0x12535063",
          "transactionHash": "0xe1b64c05436a7d91e9f7eca004671390e591f846f4aef0ad658efb82b4873dd0",
          "transactionIndex": "0x4",
          "logIndex": "0x15",
          "removed": false
        }
      ],
      "logsBloom": "0x00000000000000000020000000000000000000000000000000000000000000000000000000000000100000000000000000001000000000000000000000000000000000000000000000000000000000000000000000000000000000000000000000000000000000000060000000000000000000000001000200000010000000000000000000000000020000000110000000020000004000002000000200000000000000000000000000000000000012000000000000000000020000010400080000000000000800000000800800000000000000000000000000000000000000000000001000000080000000000000000000000000002000000000000000000000",
      "type": "0x2",
      "transactionHash": "0xe1b64c05436a7d91e9f7eca004671390e591f846f4aef0ad658efb82b4873dd0",
      "transactionIndex": "0x4",
      "blockHash": "0x1ac7db48dbce74a97d3d1bbd587871fb4d41ffd64f04c9f7bc1901b7cbc477cb",
      "blockNumber": "0x12535063",
      "gasUsed": "0x1dac9",
      "effectiveGasPrice": "0x1104b08",
      "from": "0xc8dd8da93c79f00fbfcddb5bbbb1233a02cf0296",
      "to": "0x11390cdee611b21653ca0fbe21f6feca4c029e9d",
      "contractAddress": null,
      "gasUsedForL1": "0x103e",
      "l1BlockNumber": "0x14dcaf5"
    }
  ],
  "libraries": [],
  "pending": [],
  "returns": {},
  "timestamp": 1739908091,
  "chain": 42161,
  "commit": "5ed3653"
}