{
  "transactions": [
    {
      "hash": "0x6a23cb0480e53e86bdcb9c059a02626e48e46eb7b33050d1cae56ad9627858ea",
      "transactionType": "CALL",
      "contractName": null,
      "contractAddress": "0x11390cdee611b21653ca0fbe21f6feca4c029e9d",
      "function": "setTraitData(bytes4,uint128,uint256,address[],uint256[])",
      "arguments": [
        "0x9594f3ba",
        "25",
        "1000000000000000",
        "[0xaf88d065e77c8cC2239327C5EDb3A432268e5831, 0x74912f00BdA1C2030Cf33e7194803259426e64A4]",
        "[1000000, 1000000000000000000]"
      ],
      "transaction": {
        "from": "0xc8dd8da93c79f00fbfcddb5bbbb1233a02cf0296",
        "to": "0x11390cdee611b21653ca0fbe21f6feca4c029e9d",
        "gas": "0x3a4b4",
        "value": "0x0",
        "input": "0x2062edfe9594f3ba00000000000000000000000000000000000000000000000000000000000000000000000000000000000000000000000000000000000000000000001900000000000000000000000000000000000000000000000000038d7ea4c6800000000000000000000000000000000000000000000000000000000000000000a000000000000000000000000000000000000000000000000000000000000001000000000000000000000000000000000000000000000000000000000000000002000000000000000000000000af88d065e77c8cc2239327c5edb3a432268e583100000000000000000000000074912f00bda1c2030cf33e7194803259426e64a4000000000000000000000000000000000000000000000000000000000000000200000000000000000000000000000000000000000000000000000000000f42400000000000000000000000000000000000000000000000000de0b6b3a7640000",
        "nonce": "0x89e",
        "chainId": "0xa4b1"
      },
      "additionalContracts": [],
      "isFixedGasLimit": false
    },
    {
      "hash": "0x66c32207753da46478731ddf3308d9ca91256ac01bd28dc9bf870436f1fa7dcd",
      "transactionType": "CALL",
      "contractName": null,
      "contractAddress": "0x11390cdee611b21653ca0fbe21f6feca4c029e9d",
      "function": "setTraitData(bytes4,uint128,uint256,address[],uint256[])",
      "arguments": [
        "0xd8105de5",
        "25",
        "1000000000000000",
        "[0xaf88d065e77c8cC2239327C5EDb3A432268e5831, 0x74912f00BdA1C2030Cf33e7194803259426e64A4]",
        "[1000000, 1000000000000000000]"
      ],
      "transaction": {
        "from": "0xc8dd8da93c79f00fbfcddb5bbbb1233a02cf0296",
        "to": "0x11390cdee611b21653ca0fbe21f6feca4c029e9d",
        "gas": "0x3a48c",
        "value": "0x0",
        "input": "0x2062edfed8105de500000000000000000000000000000000000000000000000000000000000000000000000000000000000000000000000000000000000000000000001900000000000000000000000000000000000000000000000000038d7ea4c6800000000000000000000000000000000000000000000000000000000000000000a000000000000000000000000000000000000000000000000000000000000001000000000000000000000000000000000000000000000000000000000000000002000000000000000000000000af88d065e77c8cc2239327c5edb3a432268e583100000000000000000000000074912f00bda1c2030cf33e7194803259426e64a4000000000000000000000000000000000000000000000000000000000000000200000000000000000000000000000000000000000000000000000000000f42400000000000000000000000000000000000000000000000000de0b6b3a7640000",
        "nonce": "0x89f",
        "chainId": "0xa4b1"
      },
      "additionalContracts": [],
      "isFixedGasLimit": false
    }
  ],
  "receipts": [
    {
      "status": "0x1",
      "cumulativeGasUsed": "0x896d0",
      "logs": [
        {
          "address": "0x11390cdee611b21653ca0fbe21f6feca4c029e9d",
          "topics": [
            "0x33d818c2731531d9c370ad1f8daf319c9ad1cba272c9cbb0900bf14f9df12ab5",
            "0x9594f3ba00000000000000000000000000000000000000000000000000000000",
            "0x000000000000000000000000af88d065e77c8cc2239327c5edb3a432268e5831",
            "0x00000000000000000000000000000000000000000000000000000000000f4240"
          ],
          "data": "0x",
          "blockHash": "0x13c6a560aaf0b8c6791504287055f902d88c9ab8e56f1b4a8d5c88cb6b931463",
          "blockNumber": "0x1243f43a",
          "transactionHash": "0x6a23cb0480e53e86bdcb9c059a02626e48e46eb7b33050d1cae56ad9627858ea",
          "transactionIndex": "0x2",
          "logIndex": "0x1",
          "removed": false
        },
        {
          "address": "0x11390cdee611b21653ca0fbe21f6feca4c029e9d",
          "topics": [
            "0x33d818c2731531d9c370ad1f8daf319c9ad1cba272c9cbb0900bf14f9df12ab5",
            "0x9594f3ba00000000000000000000000000000000000000000000000000000000",
            "0x00000000000000000000000074912f00bda1c2030cf33e7194803259426e64a4",
            "0x0000000000000000000000000000000000000000000000000de0b6b3a7640000"
          ],
          "data": "0x",
          "blockHash": "0x13c6a560aaf0b8c6791504287055f902d88c9ab8e56f1b4a8d5c88cb6b931463",
          "blockNumber": "0x1243f43a",
          "transactionHash": "0x6a23cb0480e53e86bdcb9c059a02626e48e46eb7b33050d1cae56ad9627858ea",
          "transactionIndex": "0x2",
          "logIndex": "0x2",
          "removed": false
        },
        {
          "address": "0x11390cdee611b21653ca0fbe21f6feca4c029e9d",
          "topics": [
            "0xf91dff09f4d580a0c8639e62396baeaf376c210a372bdda4bc1970b742dadfda",
            "0x9594f3ba00000000000000000000000000000000000000000000000000000000",
            "0x00000000000000000000000000000000000000000000000000038d7ea4c68000"
          ],
          "data": "0x",
          "blockHash": "0x13c6a560aaf0b8c6791504287055f902d88c9ab8e56f1b4a8d5c88cb6b931463",
          "blockNumber": "0x1243f43a",
          "transactionHash": "0x6a23cb0480e53e86bdcb9c059a02626e48e46eb7b33050d1cae56ad9627858ea",
          "transactionIndex": "0x2",
          "logIndex": "0x3",
          "removed": false
        }
      ],
      "logsBloom": "0x00000001000000000020000000000000000000000000000000000000000000000000000000000000100000000000000000001000000000000000000000000000000000000000000000000000000000000000000000000000000000000000000400000000000000000020000000000000000000200001000000000010000000000000000000000000020000000110000000020000004000000001000200000000000000000000000000000000000012000000000000000000000000000400080000000000000800400800800800000000000000000000000000000000000000000000000000000080000000000000000000000000002000000000000000000000",
      "type": "0x2",
      "transactionHash": "0x6a23cb0480e53e86bdcb9c059a02626e48e46eb7b33050d1cae56ad9627858ea",
      "transactionIndex": "0x2",
      "blockHash": "0x13c6a560aaf0b8c6791504287055f902d88c9ab8e56f1b4a8d5c88cb6b931463",
      "blockNumber": "0x1243f43a",
      "gasUsed": "0x2ba1f",
      "effectiveGasPrice": "0x989680",
      "from": "0xc8dd8da93c79f00fbfcddb5bbbb1233a02cf0296",
      "to": "0x11390cdee611b21653ca0fbe21f6feca4c029e9d",
      "contractAddress": null,
      "gasUsedForL1": "0x2173",
      "l1BlockNumber": "0x14d78f8"
    },
    {
      "status": "0x1",
      "cumulativeGasUsed": "0x2bb67",
      "logs": [
        {
          "address": "0x11390cdee611b21653ca0fbe21f6feca4c029e9d",
          "topics": [
            "0x33d818c2731531d9c370ad1f8daf319c9ad1cba272c9cbb0900bf14f9df12ab5",
            "0xd8105de500000000000000000000000000000000000000000000000000000000",
            "0x000000000000000000000000af88d065e77c8cc2239327c5edb3a432268e5831",
            "0x00000000000000000000000000000000000000000000000000000000000f4240"
          ],
          "data": "0x",
          "blockHash": "0xf0ecade87e24535cfdb7dbc3910863ad4ad9d659455d7ba19719a2c241fee575",
          "blockNumber": "0x1243f443",
          "transactionHash": "0x66c32207753da46478731ddf3308d9ca91256ac01bd28dc9bf870436f1fa7dcd",
          "transactionIndex": "0x1",
          "logIndex": "0x0",
          "removed": false
        },
        {
          "address": "0x11390cdee611b21653ca0fbe21f6feca4c029e9d",
          "topics": [
            "0x33d818c2731531d9c370ad1f8daf319c9ad1cba272c9cbb0900bf14f9df12ab5",
            "0xd8105de500000000000000000000000000000000000000000000000000000000",
            "0x00000000000000000000000074912f00bda1c2030cf33e7194803259426e64a4",
            "0x0000000000000000000000000000000000000000000000000de0b6b3a7640000"
          ],
          "data": "0x",
          "blockHash": "0xf0ecade87e24535cfdb7dbc3910863ad4ad9d659455d7ba19719a2c241fee575",
          "blockNumber": "0x1243f443",
          "transactionHash": "0x66c32207753da46478731ddf3308d9ca91256ac01bd28dc9bf870436f1fa7dcd",
          "transactionIndex": "0x1",
          "logIndex": "0x1",
          "removed": false
        },
        {
          "address": "0x11390cdee611b21653ca0fbe21f6feca4c029e9d",
          "topics": [
            "0xf91dff09f4d580a0c8639e62396baeaf376c210a372bdda4bc1970b742dadfda",
            "0xd8105de500000000000000000000000000000000000000000000000000000000",
            "0x00000000000000000000000000000000000000000000000000038d7ea4c68000"
          ],
          "data": "0x",
          "blockHash": "0xf0ecade87e24535cfdb7dbc3910863ad4ad9d659455d7ba19719a2c241fee575",
          "blockNumber": "0x1243f443",
          "transactionHash": "0x66c32207753da46478731ddf3308d9ca91256ac01bd28dc9bf870436f1fa7dcd",
          "transactionIndex": "0x1",
          "logIndex": "0x2",
          "removed": false
        }
      ],
      "logsBloom": "0x00000001000000000020000000000000000000000000000000000000000000000000000000000000100000000000000000001000000000000000000000000000000000000000000000000000000000000000000000000000000000000000000000000000000000000020000000000000000000200001000200000010000000000000000000000000020000000110000000020000004000002000000200000000000000000000000000000000000012000000000000000000000000010400080000000000000800000800800800000000000000000000000000000000000000000000000000000080000000000000000000000000002000000000000000000000",
      "type": "0x2",
      "transactionHash": "0x66c32207753da46478731ddf3308d9ca91256ac01bd28dc9bf870436f1fa7dcd",
      "transactionIndex": "0x1",
      "blockHash": "0xf0ecade87e24535cfdb7dbc3910863ad4ad9d659455d7ba19719a2c241fee575",
      "blockNumber": "0x1243f443",
      "gasUsed": "0x2bb67",
      "effectiveGasPrice": "0x989680",
      "from": "0xc8dd8da93c79f00fbfcddb5bbbb1233a02cf0296",
      "to": "0x11390cdee611b21653ca0fbe21f6feca4c029e9d",
      "contractAddress": null,
      "gasUsedForL1": "0x22bb",
      "l1BlockNumber": "0x14d78f8"
    }
  ],
  "libraries": [],
  "pending": [],
  "returns": {},
  "timestamp": 1739654333,
  "chain": 42161,
  "commit": "5ed3653"
}