{
  "transactions": [
    {
      "hash": "0x0927774cda0b7ccc7a565924cf342e40e43a86294bdbe6c9a5683400fbf2e141",
      "transactionType": "CALL",
      "contractName": null,
      "contractAddress": "0x11390cdee611b21653ca0fbe21f6feca4c029e9d",
      "function": "setTraitData(bytes4,uint128,uint256,address[],uint256[])",
      "arguments": [
        "0xf3c541aa",
        "25",
        "1000000000000000",
        "[0xaf88d065e77c8cC2239327C5EDb3A432268e5831, 0x539bdE0d7Dbd336b79148AA742883198BBF60342]",
        "[1000000, 1000000000000000000]"
      ],
      "transaction": {
        "from": "0xc8dd8da93c79f00fbfcddb5bbbb1233a02cf0296",
        "to": "0x11390cdee611b21653ca0fbe21f6feca4c029e9d",
        "gas": "0x25ec3",
        "value": "0x0",
        "input": "0x2062edfef3c541aa00000000000000000000000000000000000000000000000000000000000000000000000000000000000000000000000000000000000000000000001900000000000000000000000000000000000000000000000000038d7ea4c6800000000000000000000000000000000000000000000000000000000000000000a000000000000000000000000000000000000000000000000000000000000001000000000000000000000000000000000000000000000000000000000000000002000000000000000000000000af88d065e77c8cc2239327c5edb3a432268e5831000000000000000000000000539bde0d7dbd336b79148aa742883198bbf60342000000000000000000000000000000000000000000000000000000000000000200000000000000000000000000000000000000000000000000000000000f42400000000000000000000000000000000000000000000000000de0b6b3a7640000",
        "nonce": "0x8a2",
        "chainId": "0xa4b1"
      },
      "additionalContracts": [],
      "isFixedGasLimit": false
    }
  ],
  "receipts": [
    {
      "status": "0x1",
      "cumulativeGasUsed": "0x3d514",
      "logs": [
        {
          "address": "0x11390cdee611b21653ca0fbe21f6feca4c029e9d",
          "topics": [
            "0x33d818c2731531d9c370ad1f8daf319c9ad1cba272c9cbb0900bf14f9df12ab5",
            "0xf3c541aa00000000000000000000000000000000000000000000000000000000",
            "0x000000000000000000000000af88d065e77c8cc2239327c5edb3a432268e5831",
            "0x00000000000000000000000000000000000000000000000000000000000f4240"
          ],
          "data": "0x",
          "blockHash": "0x2c6ad7df71f06687a343bcf60a6bbb5870b29627b6084351b77511fc02144475",
          "blockNumber": "0x1253559d",
          "transactionHash": "0x0927774cda0b7ccc7a565924cf342e40e43a86294bdbe6c9a5683400fbf2e141",
          "transactionIndex": "0x2",
          "logIndex": "0x7",
          "removed": false
        },
        {
          "address": "0x11390cdee611b21653ca0fbe21f6feca4c029e9d",
          "topics": [
            "0x33d818c2731531d9c370ad1f8daf319c9ad1cba272c9cbb0900bf14f9df12ab5",
            "0xf3c541aa00000000000000000000000000000000000000000000000000000000",
            "0x000000000000000000000000539bde0d7dbd336b79148aa742883198bbf60342",
            "0x0000000000000000000000000000000000000000000000000de0b6b3a7640000"
          ],
          "data": "0x",
          "blockHash": "0x2c6ad7df71f06687a343bcf60a6bbb5870b29627b6084351b77511fc02144475",
          "blockNumber": "0x1253559d",
          "transactionHash": "0x0927774cda0b7ccc7a565924cf342e40e43a86294bdbe6c9a5683400fbf2e141",
          "transactionIndex": "0x2",
          "logIndex": "0x8",
          "removed": false
        },
        {
          "address": "0x11390cdee611b21653ca0fbe21f6feca4c029e9d",
          "topics": [
            "0xf91dff09f4d580a0c8639e62396baeaf376c210a372bdda4bc1970b742dadfda",
            "0xf3c541aa00000000000000000000000000000000000000000000000000000000",
            "0x00000000000000000000000000000000000000000000000000038d7ea4c68000"
          ],
          "data": "0x",
          "blockHash": "0x2c6ad7df71f06687a343bcf60a6bbb5870b29627b6084351b77511fc02144475",
          "blockNumber": "0x1253559d",
          "transactionHash": "0x0927774cda0b7ccc7a565924cf342e40e43a86294bdbe6c9a5683400fbf2e141",
          "transactionIndex": "0x2",
          "logIndex": "0x9",
          "removed": false
        }
      ],
      "logsBloom": "0x00000000000000000020000000000000000000000000000000000000000000010000000000000000100000000000000000001000000000000000000000000000000000000000000000000000000000000000000000000000000000000000000000000000000000000060000000000000000000000001000000000010000000000000000000000000020000000110000000020000004000020000000200000000000000000000000000000000000012000000000000000000060000000400080000000000000800000000800800000000000000000000000000000000000000000000001000000080000000000000000000000000002000000000000000000000",
      "type": "0x2",
      "transactionHash": "0x0927774cda0b7ccc7a565924cf342e40e43a86294bdbe6c9a5683400fbf2e141",
      "transactionIndex": "0x2",
      "blockHash": "0x2c6ad7df71f06687a343bcf60a6bbb5870b29627b6084351b77511fc02144475",
      "blockNumber": "0x1253559d",
      "gasUsed": "0x1ca8b",
      "effectiveGasPrice": "0xaced88",
      "from": "0xc8dd8da93c79f00fbfcddb5bbbb1233a02cf0296",
      "to": "0x11390cdee611b21653ca0fbe21f6feca4c029e9d",
      "contractAddress": null,
      "gasUsedForL1": "0x0",
      "l1BlockNumber": "0x14dcb12"
    }
  ],
  "libraries": [],
  "pending": [],
  "returns": {},
  "timestamp": 1739908426,
  "chain": 42161,
  "commit": "5ed3653"
}